{
  "_format": "hh-sol-artifact-1",
  "contractName": "OTP",
  "sourceName": "contracts/OTP.sol",
  "abi": [
    {
      "inputs": [
        {
          "internalType": "address",
          "name": "_verifier",
          "type": "address"
        },
        {
          "internalType": "uint256",
          "name": "merkleRoot",
          "type": "uint256"
        }
      ],
      "stateMutability": "nonpayable",
      "type": "constructor"
    },
    {
      "inputs": [
        {
          "internalType": "uint256[2]",
          "name": "a",
          "type": "uint256[2]"
        },
        {
          "internalType": "uint256[2][2]",
          "name": "b",
          "type": "uint256[2][2]"
        },
        {
          "internalType": "uint256[2]",
          "name": "c",
          "type": "uint256[2]"
        },
        {
          "internalType": "uint256[2]",
          "name": "input",
          "type": "uint256[2]"
        }
      ],
      "name": "blockApproval",
      "outputs": [],
      "stateMutability": "nonpayable",
      "type": "function"
    },
    {
      "inputs": [],
      "name": "dummy",
      "outputs": [
        {
          "internalType": "uint256",
          "name": "",
          "type": "uint256"
        }
      ],
      "stateMutability": "view",
      "type": "function"
    },
    {
      "inputs": [],
      "name": "lastUsedTime",
      "outputs": [
        {
          "internalType": "uint256",
          "name": "",
          "type": "uint256"
        }
      ],
      "stateMutability": "view",
      "type": "function"
    },
    {
      "inputs": [
        {
          "internalType": "uint256[2]",
          "name": "a",
          "type": "uint256[2]"
        },
        {
          "internalType": "uint256[2][2]",
          "name": "b",
          "type": "uint256[2][2]"
        },
        {
          "internalType": "uint256[2]",
          "name": "c",
          "type": "uint256[2]"
        },
        {
          "internalType": "uint256[2]",
          "name": "input",
          "type": "uint256[2]"
        }
      ],
      "name": "naiveApproval",
      "outputs": [],
      "stateMutability": "nonpayable",
      "type": "function"
    },
    {
      "inputs": [],
      "name": "root",
      "outputs": [
        {
          "internalType": "uint256",
          "name": "",
          "type": "uint256"
        }
      ],
      "stateMutability": "view",
      "type": "function"
    },
    {
      "inputs": [],
      "name": "verifierAddr",
      "outputs": [
        {
          "internalType": "address",
          "name": "",
          "type": "address"
        }
      ],
      "stateMutability": "view",
      "type": "function"
    }
  ],
  "bytecode": "0x60c06040526000805560006001553480156200001a57600080fd5b5060405162000ff538038062000ff58339818101604052810190620000409190620000b5565b8173ffffffffffffffffffffffffffffffffffffffff1660808173ffffffffffffffffffffffffffffffffffffffff1660601b815250508060a08181525050505062000168565b600081519050620000988162000134565b92915050565b600081519050620000af816200014e565b92915050565b60008060408385031215620000c957600080fd5b6000620000d98582860162000087565b9250506020620000ec858286016200009e565b9150509250929050565b600062000103826200010a565b9050919050565b600073ffffffffffffffffffffffffffffffffffffffff82169050919050565b6000819050919050565b6200013f81620000f6565b81146200014b57600080fd5b50565b62000159816200012a565b81146200016557600080fd5b50565b60805160601c60a051610e48620001ad6000396000818161020b01528181610442015261055801526000818161011d01528181610418015261046a0152610e486000f3fe608060405234801561001057600080fd5b50600436106100625760003560e01c806315eacf131461006757806332e43a1114610083578063663ea2e2146100a1578063bf98a6e4146100bf578063ebf0c717146100dd578063f3b10cde146100fb575b600080fd5b610081600480360381019061007c919061081b565b610117565b005b61008b610410565b6040516100989190610b36565b60405180910390f35b6100a9610416565b6040516100b69190610a74565b60405180910390f35b6100c761043a565b6040516100d49190610b36565b60405180910390f35b6100e5610440565b6040516100f29190610b36565b60405180910390f35b6101156004803603810190610110919061081b565b610464565b005b838383837f000000000000000000000000000000000000000000000000000000000000000073ffffffffffffffffffffffffffffffffffffffff1663f5c9d69e858585856040518563ffffffff1660e01b815260040161017a9493929190610a8f565b60206040518083038186803b15801561019257600080fd5b505afa1580156101a6573d6000803e3d6000fd5b505050506040513d601f19601f820116820180604052508101906101ca9190610880565b610209576040517f08c379a000000000000000000000000000000000000000000000000000000000815260040161020090610af6565b60405180910390fd5b7f000000000000000000000000000000000000000000000000000000000000000081600060028110610264577f4e487b7100000000000000000000000000000000000000000000000000000000600052603260045260246000fd5b6020020151146102a9576040517f08c379a00000000000000000000000000000000000000000000000000000000081526004016102a090610b16565b60405180910390fd5b600054816001600281106102e6577f4e487b7100000000000000000000000000000000000000000000000000000000600052603260045260246000fd5b60200201511161032b576040517f08c379a000000000000000000000000000000000000000000000000000000000815260040161032290610ad6565b60405180910390fd5b4285600160028110610366577f4e487b7100000000000000000000000000000000000000000000000000000000600052603260045260246000fd5b6020020151116103ab576040517f08c379a00000000000000000000000000000000000000000000000000000000081526004016103a290610ad6565b60405180910390fd5b6001600081546103ba90610cb1565b91905081905550806001600281106103fb577f4e487b7100000000000000000000000000000000000000000000000000000000600052603260045260246000fd5b60200201516000819055505050505050505050565b60015481565b7f000000000000000000000000000000000000000000000000000000000000000081565b60005481565b7f000000000000000000000000000000000000000000000000000000000000000081565b838383837f000000000000000000000000000000000000000000000000000000000000000073ffffffffffffffffffffffffffffffffffffffff1663f5c9d69e858585856040518563ffffffff1660e01b81526004016104c79493929190610a8f565b60206040518083038186803b1580156104df57600080fd5b505afa1580156104f3573d6000803e3d6000fd5b505050506040513d601f19601f820116820180604052508101906105179190610880565b610556576040517f08c379a000000000000000000000000000000000000000000000000000000000815260040161054d90610af6565b60405180910390fd5b7f0000000000000000000000000000000000000000000000000000000000000000816000600281106105b1577f4e487b7100000000000000000000000000000000000000000000000000000000600052603260045260246000fd5b6020020151146105f6576040517f08c379a00000000000000000000000000000000000000000000000000000000081526004016105ed90610b16565b60405180910390fd5b60005481600160028110610633577f4e487b7100000000000000000000000000000000000000000000000000000000600052603260045260246000fd5b602002015111610678576040517f08c379a000000000000000000000000000000000000000000000000000000000815260040161066f90610ad6565b60405180910390fd5b60016000815461068790610cb1565b91905081905550806001600281106106c8577f4e487b7100000000000000000000000000000000000000000000000000000000600052603260045260246000fd5b60200201516000819055505050505050505050565b60006106f06106eb84610b76565b610b51565b9050808285604086028201111561070657600080fd5b60005b85811015610736578161071c88826107ca565b845260208401935060408301925050600181019050610709565b5050509392505050565b600061075361074e84610b9c565b610b51565b9050808285602086028201111561076957600080fd5b60005b85811015610799578161077f8882610806565b84526020840193506020830192505060018101905061076c565b5050509392505050565b600082601f8301126107b457600080fd5b60026107c18482856106dd565b91505092915050565b600082601f8301126107db57600080fd5b60026107e8848285610740565b91505092915050565b60008151905061080081610de4565b92915050565b60008135905061081581610dfb565b92915050565b600080600080610140858703121561083257600080fd5b6000610840878288016107ca565b9450506040610851878288016107a3565b93505060c0610862878288016107ca565b925050610100610874878288016107ca565b91505092959194509250565b60006020828403121561089257600080fd5b60006108a0848285016107f1565b91505092915050565b60006108b5838361093f565b60408301905092915050565b60006108cd8383610a56565b60208301905092915050565b6108e281610c38565b82525050565b6108f181610bd6565b6108fb8184610c06565b925061090682610bc2565b8060005b8381101561093757815161091e87826108a9565b965061092983610bec565b92505060018101905061090a565b505050505050565b61094881610be1565b6109528184610c11565b925061095d82610bcc565b8060005b8381101561098e57815161097587826108c1565b965061098083610bf9565b925050600181019050610961565b505050505050565b61099f81610be1565b6109a98184610c1c565b92506109b482610bcc565b8060005b838110156109e55781516109cc87826108c1565b96506109d783610bf9565b9250506001810190506109b8565b505050505050565b60006109fa600783610c27565b9150610a0582610d69565b602082019050919050565b6000610a1d600d83610c27565b9150610a2882610d92565b602082019050919050565b6000610a40600c83610c27565b9150610a4b82610dbb565b602082019050919050565b610a5f81610c76565b82525050565b610a6e81610c76565b82525050565b6000602082019050610a8960008301846108d9565b92915050565b600061014082019050610aa56000830187610996565b610ab260408301866108e8565b610abf60c0830185610996565b610acd610100830184610996565b95945050505050565b60006020820190508181036000830152610aef816109ed565b9050919050565b60006020820190508181036000830152610b0f81610a10565b9050919050565b60006020820190508181036000830152610b2f81610a33565b9050919050565b6000602082019050610b4b6000830184610a65565b92915050565b6000610b5b610b6c565b9050610b678282610c80565b919050565b6000604051905090565b600067ffffffffffffffff821115610b9157610b90610d29565b5b602082029050919050565b600067ffffffffffffffff821115610bb757610bb6610d29565b5b602082029050919050565b6000819050919050565b6000819050919050565b600060029050919050565b600060029050919050565b6000602082019050919050565b6000602082019050919050565b600081905092915050565b600081905092915050565b600081905092915050565b600082825260208201905092915050565b6000610c4382610c56565b9050919050565b60008115159050919050565b600073ffffffffffffffffffffffffffffffffffffffff82169050919050565b6000819050919050565b610c8982610d58565b810181811067ffffffffffffffff82111715610ca857610ca7610d29565b5b80604052505050565b6000610cbc82610c76565b91507fffffffffffffffffffffffffffffffffffffffffffffffffffffffffffffffff821415610cef57610cee610cfa565b5b600182019050919050565b7f4e487b7100000000000000000000000000000000000000000000000000000000600052601160045260246000fd5b7f4e487b7100000000000000000000000000000000000000000000000000000000600052604160045260246000fd5b6000601f19601f8301169050919050565b7f6f6c64204f545000000000000000000000000000000000000000000000000000600082015250565b7f696e76616c69642070726f6f6600000000000000000000000000000000000000600082015250565b7f696e76616c696420726f6f740000000000000000000000000000000000000000600082015250565b610ded81610c4a565b8114610df857600080fd5b50565b610e0481610c76565b8114610e0f57600080fd5b5056fea2646970667358221220c2c2cd09459ed6fdbbcc479711a08284001cc15751bf89e2f50e87a167ce7e2564736f6c63430008040033",
  "linkReferences": {},
  "deployedLinkReferences": {}
}